:400000000080002011000000CD000000CD00000008B5044B1A6803F53F5302331A6000F06FF800BFFA46004010B5054C237833B9044B13B10448AFF300800123237010BD76
:400040009889FF1F0000000020580000084B10B51BB108480849AFF300800848036803B910BD074B002BFBD0BDE81040184700BF00000000205800009C89FF1F0881FF1F21
:400080000000000000B58FB062B600F0F5FA00F06DFB00F0FFFA00F005FB00F00FFB00F00DFD02460B4601A8064901F06BFB01A800F076FB044800F073FB4FF4967000F05B
:4000C000DDF9E6E73058000038580000FEE700BF08B5094B1A681044084BC31AB3F5805F02DC054B186005E001F05AFA0C2303604FF0FF32104608BD0C81FF1F008AFF1FC3
:4001000008B5104E104D16E029686B68AC68002204E051F8040B43F8040B0432A242F8D1E868002203E0002143F8041B04328242F9D11035013E002EE6D101F037FAFFF739
:40014000A1FFFEE701000000385A000008B5124A124B1A60124A136843F40073136000230AE0032B03D80F4A52F8231000E00E490E4A42F8231001332F2BF2D90C4B1A7859
:400180000C4B1A70094A0C4B1A6000F0D9F800220A4B1A6008BD00BF0004FA050CED00E014ED00E000000000CD0000000080FF1FBC7600400481FF1F08ED00E00081FF1F53
:4001C000FEE700BFF0B40022174611E050F82760F3B226F0FF0608E001EB420511F812406D78A5550132013BDBB2002BF4D10137102FEBD9F0BC704770B4164B1B78DBB234
:4002000015480278D2B2154C2178C9B203F00706134D2E701B0901352B7042F00303037041F0030323700823A5F242752B70802605F2DC752E7005F21F252B702026033592
:400240002E702D352B70217002704422054B1A7070BC7047CF010049F8460040F94600406E5800407658004008B50A46002101F03BFA08BD38B50122254B1A801823254AB6
:400280001370192502321580023213700222224B1A7008224FF040231A70032103F5007319701E4B1B78DBB21D490B701D4B1A8041F25122023B1A8000240CE01A4B1B7883
:4002C00003F0010343EA440404F003044FF4F07000F0C2F8013D0DB1032CEFD115B90320FFF76EFF114B4FF480721A8007221A7000220F490A704820023108701A70022278
:40030000033B1A700B4A137843F00303137038BD80400040824000400043004008010049A146004022420040254200400440004006400040A243004008B501F05FF908BD21
:4003400038B572B6354A137843F00403137000240CE0334963001A1952000A4423445B00C8589188FFF780FF0134E4B2082CF0D9002410E02A49A3001A1952000A4452F860
:40038000380F23445B000B445168B3F84020FFF7D3FF0134E4B2012CECD94FF090402149FFF710FF204A137843F0020313701032137843F0020313701C4C237843F040036D
:4003C0002370A2F58632513A137843F010031370174818490822FFF7AFFF174817490A22FFF7AAFF164817490822FFF7A5FF164A137843F008031370144D61232B70FFF780
:4004000039FF81232B700122114B1A70FFF7F4FE104821460E22FFF78FFF38BDE84600403C5800004400004803500140A0430040025100402C030048C051004034030048CD
:400440002251004040030048224300400048004004000840B04300400230800803D000BF01380046FCD17047EFF3108072B6704780F31088704700BF01BE704710B50446EC
:4004800005E0084B1868FFF7E7FFA4F50044B4F5004FF6D8034B586800FB04F0FFF7DCFF10BD00BF1081FF1F08B5034B1B7A03FB00F0FFF7D1FF08BD1081FF1F70B50446C5
:4004C0000E46074B1D681F2802D90020FFF7D4FF04F01F04103455F8240045F8246070BD08ED00E038B504460D46072902D90020FFF7C2FF1F2C02D90020FFF7BDFF04F0DF
:400500001F0000F1604000F564406D01EDB2057038BD00BF08B50A280FD00C2802D0082806D102E04FF4805209E04FF4807206E00020FFF7A1FF002201E04FF48062002167
:40054000084B198042F2107303FB02F313F5806301D503F2FF73DB12034A13600022034B1A8008BDF289FF1FEC89FF1FF089FF1F10B5FFF779FF04461E4A137843F00203D6
:4005800013701032137843F002031370193A137843F0010313701032137843F00103137002F5AA521932137843F0030313700422114B1A70013B1A7802F0BF021A701A78E3
:4005C00042F003021A700822053B1A700222A3F59753123B1A70094A137843F0080313700A20FFF761FF0122054B1A602046FFF73FFF10BDAB4300400E5900402F5B0040B7
:4006000080E200E010B504460A280DD00C2802D0082804D101E0C42207E0442205E00020FFF72AFFC42200E08422034B1A702046FFF770FF10BD00BF0A59004008B51020EC
:4006400000F0C0F800200721FFF74CFF00200749FFF734FF064A137843F0060313700C20FFF7D0FF0022034B1A8008BD0D07000009590040F489FF1F08B5054B1B7823B989
:40068000FFF7DCFF0122024B1A70FFF771FF08BDB489FF1F024A137843F001031370704708590040034B1B88034A1088181A00B2704700BFA25B0040F089FF1F38B50F4BB5
:4006C0001B889BB233B10D4B1C8824B204EB8404640001E00A4B1C680A4B1B88C01A00B200F0FAFA084900F04BFB0546204600F0F3FA0146284600F0F7FB38BDF289FF1F1D
:40070000EC89FF1FF489FF1F00002041704700BF7222074B1A70202201331A700622623B1A70472210331A7000224F331A7070478A65004010B5FFF797FE04460A4A137832
:4007400043F0200313700132137843F010031370033A137843F01003137000F03DF82046FFF786FE10BD00BF9A65004008B5054B1B7823B9FFF7CCFF0122024B1A70FFF78B
:40078000D9FF08BDB589FF1F034B1B7813F0040FFAD1024B18707047686500404865004038B5074B1B782BB938BDFFF7EDFF0134A4B201E005460024285D0028F5D138BD28
:4007C000B589FF1F034B1A7800F0F80010431870704700BF82400040054A137843F0020313701032137843F002031370704700BFA243004081F0004102E000BF83F00043C1
:4008000030B54FEA41044FEA430594EA050F08BF90EA020F1FBF54EA000C55EA020C7FEA645C7FEA655C00F0E2804FEA5454D4EB5555B8BF6D420CDD2C4480EA020281EA34
:40084000030382EA000083EA010180EA020281EA0303362D88BF30BD11F0004F4FEA01314FF4801C4CEA113102D0404261EB410113F0004F4FEA03334CEA133302D052428A
:4008800063EB430394EA050F00F0A780A4F10104D5F1200E0DDB02FA0EFC22FA05F2801841F1000103FA0EF2801843FA05F359410EE0A5F120050EF1200E012A03FA0EFC35
:4008C00028BF4CF0020C43FA05F3C01851EBE37101F0004507D54FF0000EDCF1000C7EEB00006EEB0101B1F5801F1BD3B1F5001F0CD349085FEA30004FEA3C0C04F1010412
:400900004FEA445212F5800F80F09A80BCF1004F08BF5FEA500C50F1000041EB045141EA050130BD5FEA4C0C404141EB010111F4801FA4F10104E9D191F0000F04BF01469E
:400940000020B1FA81F308BF2033A3F10B03B3F120020CDA0C3208DD02F1140CC2F10C0201FA0CF021FA02F10CE002F11402D8BFC2F1200C01FA02F120FA0CFCDCBF41EA93
:400980000C019040E41AA2BF01EB0451294330BD6FEA04041F3C1CDA0C340EDC04F11404C4F1200220FA04F001FA02F340EA030021FA04F345EA030130BDC4F10C04C4F1CA
:4009C000200220FA02F001FA04F340EA0300294630BD21FA04F0294630BD94F0000F83F4801306BF81F480110134013D4EE77FEA645C18BF7FEA655C29D094EA050F08BF57
:400A000090EA020F05D054EA000C04BF1946104630BD91EA030F1EBF0021002030BD5FEA545C05D14000494128BF41F0004130BD14F580043CBF01F5801130BD01F00045FE
:400A400045F0FE4141F470014FF0000030BD7FEA645C1ABF194610467FEA655C1CBF0B46024650EA013406BF52EA033591EA030F41F4002130BD00BF90F0000F04BF002131
:400A8000704730B54FF4806404F132044FF000054FF0000150E700BF90F0000F04BF0021704730B54FF4806404F1320410F0004548BF40424FF000013EE700BF42004FEA00
:400AC000E2014FEA31014FEA02701FBF12F07F4393F07F4F81F06051704792F0000F14BF93F07F4F704730B54FF4607401F0004521F0004120E700BF50EA010208BF7047C0
:400B000030B54FF000050AE050EA010208BF704730B511F0004502D5404261EB41014FF4806404F132045FEA915C3FF4DCAE4FF003025FEADC0C18BF03325FEADC0C18BF07
:400B4000033202EBDC02C2F1200300FA03FC20FA02F001FA03FE40EA0E0021FA02F11444C1E600BF80F0004002E000BF81F0004142001FBF5FEA410392EA030F7FEA226C65
:400B80007FEA236C6AD04FEA1262D2EB1363C1BFD218414048404140B8BF5B42192B88BF704710F0004F40F4000020F07F4018BF404211F0004F41F4000121F07F4118BF00
:400BC000494292EA030F3FD0A2F1010241FA03FC10EB0C00C3F1200301FA03F100F0004302D5494260EB4000B0F5000F13D3B0F1807F06D340084FEA310102F10102FE2A2C
:400C000051D2B1F1004F40EBC25008BF20F0010040EA03007047490040EB000010F4000FA2F10102EDD1B0FA80FCACF1080CB2EB0C0200FA0CF0AABF00EBC25052421843FF
:400C4000BCBFD0401843704792F0000F81F4000106BF80F400000132013BB5E74FEA41037FEA226C18BF7FEA236C21D092EA030F04D092F0000F08BF0846704790EA010F0F
:400C80001CBF0020704712F07F4F04D1400028BF40F00040704712F100723CBF00F50000704700F0004343F0FE4040F4000070477FEA226216BF08467FEA2363014642025A
:400CC00006BF5FEA412390EA010F40F4800070474FF0000304E000BF10F0004348BF40425FEA000C08BF704743F0964301464FF000001CE050EA010208BF70474FF000037E
:400D00000AE000BF50EA010208BF704711F0004302D5404261EB41015FEA010C02BF84460146002043F0B64308BFA3F18053A3F50003BCFA8CF2083AA3EBC25310DB01FAE8
:400D400002FC634400FA02FCC2F12002BCF1004F20FA02F243EB020008BF20F00100704702F1200201FA02FCC2F1200250EA4C0021FA02F243EB020008BF20EADC707047BC
:400D80004FF0FF0C1CEAD0521EBF1CEAD15392EA0C0F93EA0C0F6FD01A4480EA010C400218BF5FEA41211ED04FF0006343EA501043EA5111A0FB01310CF00040B1F5000F49
:400DC0003EBF490041EAD3715B0040EA010062F17F02FD2A1DD8B3F1004F40EBC25008BF20F00100704790F0000F0CF0004C08BF49024CEA502040EA51207F3AC2BFD2F1E2
:400E0000FF0340EAC250704740F400004FF00003013A5DDC12F1190FDCBF00F000407047C2F10002410021FA02F1C2F1200200FA02FC5FEA310040F1000053EA4C0308BF57
:400E400020EADC70704792F0000F00F0004C02BF400010F4000F013AF9D040EA0C0093F0000F01F0004C02BF490011F4000F013BF9D041EA0C018FE70CEAD15392EA0C0FF9
:400E800018BF93EA0C0F0AD030F0004C18BF31F0004CD8D180EA010000F00040704790F0000F17BF90F0004F084691F0000F91F0004F14D092EA0C0F01D142020FD193EA6E
:400EC0000C0F03D14B0218BF084608D180EA010000F0004040F0FE4040F40000704740F0FE4040F4400070474FF0FF0C1CEAD0521EBF1CEAD15392EA0C0F93EA0C0F69D04A
:400F0000A2EB030280EA010C49024FEA402037D04FF0805343EA111143EA10130CF000408B4238BF5B0042F17D024FF4000C8B4224BF5B1A40EA0C00B3EB510F24BFA3EBE6
:400F4000510340EA5C00B3EB910F24BFA3EB910340EA9C00B3EBD10F24BFA3EBD10340EADC001B0118BF5FEA1C1CE0D1FD2A3FF650AF8B4240EBC25008BF20F001007047AC
:400F80000CF0004C4CEA50207F32C2BFD2F1FF0340EAC250704740F400004FF00003013A37E792F0000F00F0004C02BF400010F4000F013AF9D040EA0C0093F0000F01F0EC
:400FC000004C02BF490011F4000F013BF9D041EA0C0195E70CEAD15392EA0C0F08D142027FF47DAF93EA0C0F7FF470AF084676E793EA0C0F04D14B023FF44CAF08466EE701
:4010000030F0004C18BF31F0004CCAD130F000427FF45CAF31F000437FF43CAF5FE700BF2DE9F041069C904606460F461D4600F029F808FB01FCA8FB002300FB05C5B21A93
:401040002B4467EB03038646C4E90023BDE8F0812DE9F843089E1746804689461D4600F067F900FB05F3A0FB074507FB0137B8EB04043D4469EB0505C6E90045BDE8F883A9
:40108000704700BF00292DE9F043C0F2A8800026002BC0F29E8081468E4690469C46174604460D46002B3DD18A4259D9B2FA82F33BB1C3F120029D4020FA02F29F401543C4
:4010C0009C40390CB5FBF1F01FFA87FE01FB10550EFB00F3220C42EA0545AB4209D9ED1900F1FF3280F00B81AB4240F2088102383D44ED1AB5FBF1F301FB13550EFB03FE40
:40110000A4B244EA0545AE4508D9ED1903F1FF3280F0F780AE4540F2F480023B43EA0043002203E08B420FD900221346341C18BF012460424FF0000565EB4501584051408F
:4011400000196941BDE8F083B3FA83F2002A40F089808B4202D3804500F2E2800123E5E712B90123B3FBF2F7B7FA87F8B8F1000F3BD1ED1B4FEA174C1FFA87FE0122B5FBD5
:40118000FCF00CFB10550EFB00F3210C41EA0545AB4207D9ED1900F1FF3102D2AB4200F2C3800846ED1AB5FBFCF30CFB13550EFB03FEA4B244EA0545AE4507D9ED1903F147
:4011C000FF3102D2AE4500F2AD800B4643EA0043ACE752426FEA060663EB43035BE7404261EB41014FF0FF3652E707FA08F7C8F1200225FA02F34FEA174CB3FBFCF11FFABA
:4012000087FE0CFB113324FA02F205FA08F50EFB01F92A43100C40EA0343994504FA08F407D9DB1901F1FF3078D2994576D902393B44C9EB0303B3FBFCF00CFB10330EFB2F
:4012400000F592B242EA03439D4207D9DB1900F1FF325FD29D425DD902383B445D1B40EA01428CE7C2F1200328FA03F10CFA02FC41EA0C0C4FEA1C402EFA03F1B1FBF0F522
:401280001FFA8CF700FB151129FA03F30EFA02FE07FB05F943EA0E0E4FEA1E4343EA0141894508FA02F808D911EB0C0105F1FF3332D2894530D9023D6144C9EB0101B1FB01
:4012C000F0F300FB131107FB03F71FFA8EFE4EEA014E774508D91EEB0C0E03F1FF3117D2774515D9023BE64443EA0543A3FB0889C7EB0E0ECE4509D305D0002216E710463B
:40130000F7E613460AE794404445F6D2013BF4E70B46E9E71046A1E71D46CEE7014688E7134603E7023B51E702383D443AE700BF2DE9F043002B44D18A42154604464FD908
:40134000B2FA82F70E464FB1C7F12003B94020FA03F602FA07F50E4300FA07F42F0CB6FBF7F01FFA85FE07FB10620EFB00F1260C46EA0243994209D95B1900F1FF3280F088
:40138000EE80994240F2EB8002382B44591AB1FBF7F307FB13110EFB03FEA4B244EA01418E4508D9491903F1FF3280F0DA808E4540F2D780023B43EA004000263146BDE852
:4013C000F0838B4247D8B3FA83F6002E48D18B4202D3824200F2CF8001203146BDE8F08312B90125B5FBF2F5B5FA85FCBCF1000F78D1491B2F0C1FFA85FE0126B1FBF7F018
:4014000007FB10110EFB00F2230C43EA01418A4207D9491900F1FF3302D28A4200F2BC801846891AB1FBF7F307FB13110EFB03FEA4B244EA0142964508D9521903F1FF3118
:4014400080F09180964540F28E80023B43EA00403146BDE8F083002630463146BDE8F083C6F1200422FA04F5B3402B4321FA04F74FEA1348B7FBF8FC1FFA83F908FB1C77A0
:4014800020FA04FE01FA06F509FB0CF44EEA05054FEA154E4EEA0747BC4202FA06F204D9FF180CF1FF3168D38C463F1BB7FBF8F408FB147709FB04F9ADB245EA0741894567
:4014C00004D9C91804F1FF355DD32C4644EA0C44A4FB0223C9EB0101994249D345D0204600266BE7CCF1200405FA0CF521FA04F32A0CB3FBF2F61FFA85FE02FB163820FAC1
:4015000004F701FA0CF10EFB06F90F433C0C44EA0843994500FA0CF407D95B1906F1FF3138D2994536D9023E2B44C9EB0303B3FBF2F002FB10330EFB00F1BFB247EA034338
:40154000994207D95B1900F1FF3721D299421FD902382B441746591A40EA06464EE7104614E7134627E70B4670E7B0409042B6D2601E002622E7304620E7BC4294D9ACF14F
:40158000020C1F4491E789459FD9023C19449DE73846DFE70E46C8E70238294441E700BF014B1868704700BF4885FF1F70B50F4E0F4D761BB61018BF002405D0013455F854
:4015C000043B9847A642F9D10A4E0B4D04F020FA761BB61018BF002406D0013455F8043B9847A642F9D170BD70BD00BF1C5A00001C5A0000285A00001C5A0000844641EAF1
:40160000000313F0030349D1403A23D30B6803604B6843608B688360CB68C3600B6903614B6943618B698361CB69C3610B6A03624B6A43628B6A8362CB6AC3620B6B036318
:401640004B6B43638B6B8363CB6BC36340304031403ADBD230320BD30B6803604B6843608B688360CB68C36010301031103AF3D20C3205D351F8043B40F8043B043AF9D288
:40168000043208D0D2071CBF11F8013B00F8013B01D30B8803806046704700BF082A13D38B07B1D010F00303AED0C3F10403D21ADB071CBF11F8013B00F8013BA4D331F8BD
:4016C000023B20F8023B9FE7043AD9D3013A11F8013B00F8013BF9D20B7803704B7843708B7883706046704770B4840746D0541E002A41D0CDB2034602E0621EE4B314461D
:4017000003F8015B9A07F8D1032C2ED9CDB245EA05250F2C45EA054519D9264603F11002103E0F2E42F8105C42F80C5C42F8085C42F8045C02F11002F2D8A4F1100222F02F
:401740000F0204F00F041032032C13440DD91E462246043A032A46F8045BFAD8221F22F003020432134404F003042CB1C9B21C4403F8011BA342FBD170BC70471446034617
:40178000C2E700BF0EB4F0B506464FF6FF7E9CB021AC54F8042B0D4923466FF0004508684FF4027702A9029606960194ADF816E0ADF814700495079500F00AF8029B00220B
:4017C0001A701CB0BDE8F04003B070474885FF1F2DE9F04FC1B089460A920E93089002F085FA03681846179303F094F8B9F80C3018901C0604D5D9F81030002B01F0C2809D
:4018000030AF3C464E4600231393169319930B93259324932397149315930A9D2B78002B00F0A980252B02D1A5E0252B03D015F8013F002BF9D10A9BEB1A73B1249A25999A
:4018400001320A981944072A84E809002591249272DC08340B9A1A440B922B78002B00F0E28700231A46691C6D788DF86F300C9307934FF0FF3A4B1CA5F12001582900F280
:40188000EA83DFE811F06D02E803E803D102E803E803E803E803E803E803BC020D02E803F4011102E803D8027B027B027B027B027B027B027B027B027B02E803E803E803AE
:4018C000E803E803E803E803E803E803E8038A02DF02E803DF02E803E803E803E803CB03E803E8032F03E803E803E803E803E8034D03E803E8036703E803E803E803E803ED
:40190000E803E803E803E803E803E80382032B02DF02DF02DF02CA022B02E803E803B202E803D203FB0119037402E803A303E8037A00E803E80347020898314623AA07936C
:4019400003F016F850B93C46079B83E70898314623AA03F00DF8002800F08581B146B9F80C3013F0400F0B9B18BF4FF0FF33184641B0BDE8F08F0A9D6FE70A93079B980664
:4019800040F1D7820E9B03F1070929F0070303F10802D3E900890E92012300229446CDF844A08DF86F20BAF1000F03DB079A22F08002079258EA090240F06F83BAF1000F7E
:4019C00000F07484012B00F07283022B00F0C28439464FEAD80242EA49724FEAD90008F0070381469046303358EA090201F8013DEFD1079A1091D20700F17F857B1A0D9375
:401A00000D9A53469245B8BF1346099300231293BCF1000F02D0099B01330993079B13F002030F9302D0099B02330993079B13F0840940F02F830C9B099AC2EB0308B8F107
:401A4000000F40F32783B8F1100F2599249ADFF870A529DD53464FF0100BC246A8461D4606E0AAF1100ABAF1100F04F1080417DD01321031072A2591249284E82008F0DD2C
:401A80000898314623AA02F073FF00287FF466AFAAF1100ABAF1100F3C462599249AE7DC2B464546D0469A46013208EB010B072ACDF894B02492C4F800A0C4F8048000F34B
:401AC000DE829DF86FC00834BCF1000F0FD0249B0BF1010B01330DF16F010122072BCDF894B0249384E8060000F3FD8308340F9B73B1249B0BF1020B01331CA90222072B67
:401B0000CDF894B0249384E8060000F3F9830834B9F1800F00F03483119B0D9AC2EB030ABAF1000F3CDDBAF1100F249ADFF894942BDD49465B46A9464FF01008DDF820B05E
:401B40000D4606E0AAF1100ABAF1100F04F1080417DD01321033072A2593249284E82001F0DD5846314623AA02F002FF00287FF4F5AEAAF1100ABAF1100F3C46259B249AB7
:401B8000E7DC9B462B464D4699460132D344072ACDF894B0249284E8000600F398830834079BD90500F18F82249B0D990133109A8B44072BCDF894B022606160249300F3EC
:401BC000B8830834079B5A0741D50C9B099A9D1A002D3CDD102D249BDFF8E4A323DD4FF010085A46DDF8209004E0103D102D04F1080417DD01331032072B25922493C4F803
:401C000000A0C4F80480F0DD4846314623AA02F0AFFE00287FF4A2AE103D102D3C46259A249BE7DC93460133AB44072BCDF894B02493C4F800A0656009DD0898314623AA75
:401C400002F096FE00287FF489AEDDF894B00B9B099A0C998A42ACBF9B185B180B93BBF1000F7FF473AE002324933C46D5E51946079840F0040007901D78FCE50A93079B27
:401C800013F0200300F038810E9B03F1070929F0070303F10802D3E900890E9200237CE61D7819462B22E6E51D78591C2A2D00F0E587A5F1300009280B464FF0000A3FF68E
:401CC000DBAD13F8015B0AEB8A0A00EB4A0AA5F130000928F5D94AEAEA7ACDE50A93079B8DF86F20980662D50E9B03F1070929F00709D9E9002309F10801904699460E91E4
:401D0000002A73F1000364DB9DF86FC0CDF844A0012348E60A93A74B8DF86F201693079B9B0640F120810E9B03F1070929F0070303F108020E92D3E90089079BD90740F14D
:401D4000228158EA090300F01E81079A302342F002028DF870308DF87150079202231CE6002A40F0E5841D781946202283E5079941F0200107911D7819467CE5A5F1300088
:401D8000002113F8015B01EB810100EB4101A5F130000928F5D90C916EE50A93079B8DF86F2043F010030793079B98069CD4079BD90640F1C1840E9A13461B6804320E9217
:401DC0004FEAE3791A4698464B46002A73F100039ADA4FF02D0CD8F1000869EB49098DF86FC0CDF844A00123DDE51D7807996C2D00F0258541F01001079119463BE50E9DDC
:401E0000296808460C912946002801F10401C0F21D850E911D7819462DE5079941F0400107911D78194626E5079941F0010107911D7819461FE5079941F0800107911D7814
:401E4000194618E50A93079B8DF86F2013F0080F0E9BD34603F1070900F0378429F0070303F108020E921A685B68149215931599149802F011FD01281599149840F00B8438
:401E80000022002303F064FC002840F039869DF86FC0079B484A23F0800307931346DFF828E10321472DD8BF734600200991119010930D911290ABE50E9907980A93302326
:401EC0000A688DF870303B4B782540F002000431169307900E9190464FF000098DF8715002235AE50A93079B43F010030793079B13F020037FF4C8AE079A12F0100240F065
:401F00000A83079B13F0400300F005830E9913460A460432B1F800804FF000090E923CE50A93079B43F010030793079B98063FF529AD079BD90600F1F782079B5A0640F175
:401F4000F3820E9A4FF00009B2F80080043201230E9222E50A93194B8DF86F201693079B9B063FF5E0AE079BD80640F1BB830E9A13461B6804329846079B0E92D9074FF026
:401F800000093FF5DEAE022307E50E980A93026800238DF89820024601219C4604328DF86F301193129326AB09910E920D91109334E500BFC4580000A4580000B058000007
:401FC000E458000090580000A05800000E9A0A9313684FF0000B10938DF86FB002F10409002B00F05885BAF1000F1098C0F2EA845946524602F004F9002800F08985109B03
:40200000CDF844B0C31A0D93CDF8389023EAE3730993CDF848B09DF86FC0F9E4079941F0080107911D78194625E40A93079B8DF86F209A0640F165830E9A134604330E932C
:402040000B9B11684FEAE3791A4698464B46C1E90023FFF7E2BB0A938DF86F20002D00F0E283002301229C468DF86F301193129326AB09928DF898500D921093CEE4089848
:40208000314623AA02F074FC00287FF467AC3C469DF86FC0DDF894B016E5012B7FF495ACB9F1000F08BFB8F10A0F80F006820DF5807B08F130080BF8418DCBEB07030D93F9
:4020C000CDF840B09CE4652D40F3A080149815990022002303F032FB002800F05481249BC14901330BF1010B0122072BCDF894B0249384E8060000F33E8308341D9B139A39
:40210000934203DB079BDA077FF55CAD249B18990133179A8B44072BCDF894B022606160249300F31A840834139B5D1E002D7FF749AD102D249BDFF8B49240F3EF804FF00A
:4021400010085A46DDF820A004E00834103D102D40F3E38001331032072B25922493C4F80090C4F80480F0DD5046314623AA02F0FFFB00287FF4F2AB3C46259A249BE5E799
:402180000C9B099AC2EB030ABAF1000F7FF7C4ACBAF1100F249ADFF854922BDD49465B46A9464FF01008DDF820B00D4606E0AAF1100ABAF1100F04F1080417DD01321033F0
:4021C000072A2593249284E82001F0DD5846314623AA02F0CDFB00287FF4C0ABAAF1100ABAF1100F3C46259B249AE7DC9B462B464D4699460132D344072ACDF894B0249204
:4022000084E8000600F33A82083485E4139B249D012B40F3FC81013510990BF101030122072D259321602495626000F30E8208341899013503EB010B179B072DCDF894B014
:4022400024952360616000F30C820834002314981599002203F072FA139B002840F0E380109A013B013501329B44072D22602495CDF894B0636000F313810834199A013528
:4022800093441FAB072DCDF894B02495626023607FF797AC0898314623AA02F069FB00287FF45CAB3C46DDF894B08BE4002B4CD1079BD80749D50DF5807B30230BF8413DEB
:4022C000CBEB07030D93CDF840B0FFF799BB0898314623AA02F04CFB00287FF43FAB3C46DDF894B05CE40898314623AA02F040FB00287FF433AB3C46DDF894B0FFF7F7BB35
:402300000898314623AA02F033FB00287FF426AB3C46DDF894B0FFF7FBBB93460133AB44072BCDF894B02493C4F8009065607FF748AC0898314623AA02F01AFB00287FF4F7
:402340000DABDDF894B03C463CE4CDF834A01097FFF756BBBB4616984FEA181343EA09734FEA191108F00F0289469846835C0BF8013D58EA0903EFD15B46CDF840B0FB1A35
:402380000D93FFF73DBB1D9D002D40F30082139A129913468A42A8BF0B461D461099002D01EB020A0CDD0A46249BAB440133072BCDF894B084E82400249300F348830834F6
:4023C000129B002DA8BF5B1B002B1D4640F3C180102D249BDFF8149040F3C0815A464FF01008DDF820B008E0E0580000905800000834103D102D40F3B08101331032072BC3
:4024000025922493C4F80090C4F80480F0DD5846314623AA02F0ACFA00287FF49FAA3C46259A249BE5E703F1FF38B8F1000F7FF725AFB8F1100FDFF8489525DD5B464FF020
:40244000100ADDF820B006E0A8F11008B8F1100F04F1080417DD01351033072D2593249584E80006F0DD5846314623AA02F080FA00287FF473AAA8F11008B8F1100F3C46EB
:40248000259B249DE7DC9B460135C344072DCDF894B02495C4F80090C4F804807FF7EDAE0898314623AA02F063FA00287FF456AADDF894B0249D3C46E0E6BB46CDF824C08D
:4024C000404649460A22002303F092F93032404649460BF8012D00230A2203F089F98046894658EA0903EBD15B46FB1ADDF824C0CDF840B00D93FFF783BA302B109B3FF4BF
:402500003EAF013B1A461093BA1A30230D9201F8013CFFF775BA0E994FF000090A6804310E919046FFF739BA0E9901230A6804310E9190464FF00009FFF72FBA0898314635
:4025400023AA02F015FA00287FF408AA3C46DDF894B0109A12991D9B0A449046139A934246DB079AD00743D4139AC8EB0A05D31A9D42A8BF1D46002D0CDD249AAB44013247
:40258000072ACDF894B0C4F800806560249200F396820834002DB4BF1D465D1B002D7FF711AB102D249BDFF8D8937FF7B7AE4FF010085A46DDF820A004E00834103D102DBA
:4025C0007FF7ABAE01331032072B25922493C4F80090C4F80480F0DD5046314623AA02F0C7F900287FF4BAA93C46259A249BE5E7249A1898013217998344072ACDF894B0F5
:4026000021606060249200F339820834ACE7079BD9073FF500AE0135109A0BF1010B0123072DCDF894B02260249563607FF725AE0898314623AA02F09BF900287FF48EA9F6
:402640003C46DDF894B0249D18E60898314623AA02F08EF900287FF481A93C46259B249DE6E50898314623AA02F082F900287FF475A93C46DDF894B0249DE7E508983146C7
:4026800023AA02F075F900287FF468A93C46DDF894B0FFF741BA02F0FFF8002840F0DD80B44AB54B8646472DD8BF1A4611900798032120F0800009910790CDF848E010922E
:4026C0000D919DF86FC0FFF7A3B929F00709D9F800301493D9F80430159309F108030E93FFF7C5BB079B0E9A13F0400F13463FF440AC0433B2F800804FF000090E93FFF738
:402700001CBB079BDB060BD4079B5D0608D50E9A136804320E92BDF82C201A80FFF77DB80E9A136804320E920B9A1A60FFF775B819461D78FFF79FB8079B0E9A13F0400FA7
:4027400013463FF43AABB2F9008004334FEAE8790E9342464B46FFF7D3BA93460133AB44072BCDF894B02493C4F8009065603FF7E5AE0834EDE60898314623AA02F0F8F812
:4027800000287FF4EBA83C46DDF894B0B6E4249B7A4901330BF1010B0122072BCDF894B0249384E8060000F3FD8008342DB9139B1BB9079BDB077FF505AA249B1898013313
:4027C000179A0BEB0001072B259122606060249300F3F48104F108026D42002D40F30781102DDFF89C9140F33E811024DDF8208004E00832103D102D40F335810133103170
:40280000072B25912493C2F800905460F1DD4046314623AA02F0ACF800287FF49FA83A462599249BE6E7259BB146002B3FF497A80898314623AA02F09BF8FFF790B841F0F5
:40284000200107915D78591CFFF715B80C980E9140420C901946FFF70BBA25F02003BAF1FF3F0D9300F0AB80472B05D1BAF1000F14BFD3464FF0010B079B43F48073119392
:40288000159BB3F1000A149B0993B7BF5346002303F1004A2D23662D0F9300F0B980462D00F0B6800D9B0220452B14BFD9460BF101091DA98DE8010202911EA821A9039092
:4028C000099A53460491089800F0A6FA672D109002D0472D40F0AC80079BDB0740F19681109B03EB0908099851460022002302F025FF002840F00A81219B984506D930214C
:402900005A1C21921970219B9845F9D8109A9B1A13930D9B472B1D9B00F0EB80652D40F30581662D129300F06481139B129A934200F35181079BD90700F1888122EAE27320
:402940000D920F9A002A40F0C9800993119B9DF86FC007931192FFF75BB80898314623AA02F006F800287EF4F9AF3C46DDF894B0FFF7DABBAC580000A8580000E0580000A2
:40298000905800000898402101F0B4F9C9F80000C9F81000002800F086814023C9F81430FEF72EBF0898314623AA01F0E1FF00287EF4D4AF3C461D9DDDF894B0F6E64FF053
:4029C000060B59E7CDF844B001F0A4FFCDF838900D900346FFF71ABB0898314623AA01F0C7FF00287EF4BAAF3A462599249B139C013301EB040B1099072BCDF894B02493E7
:402A0000116054603FF795AC02F10804FFF7DAB803201DA98DE8010802911EA821A90390099A53460491089800F0F6F9D9461090109B03EB09080D9B462B7FF454AF109B63
:402A40001B78302B00F0E4801D9B98444BE70898314623AA01F08CFF00287EF47FAF3C46DDF894B0ACE401332944072B25912493C2F800905560AFDC0832B8E70898314641
:402A800023AA01F075FF00287EF468AF3C461D9BDDF894B068E55346062B28BF06230D9323EAE373DDF840C00993844BCDF83890CDF844C0CDF848C01093FEF7A9BF0898B3
:402AC000314623AA01F054FF00287EF447AF1D9B139ADDF894B0D31A3C465BE50993119B4FF02D0C079300238DF86FC01193FEF792BFDA1C19DB9B4517DB1293672514E78E
:402B00002D239C468DF86F30FFF7C3B94346FDE62AEAEA731190CDF8389012909DF86FC00993CDF834A0FEF773BF023D013B002B1D93BABF5B422D222B22092B8DF87C5073
:402B40008DF87D207ADD0DF18B0001465C4A82FB032EDA17C2EBAE0E0EEB8E02A3EB420273463032092B01F8012DEFDC0A4630335FFA83FE02F801ED904240F29B800DF130
:402B80007E020B4601E013F801EB834202F801EBF9D123AB5B1A0DF17E0213441FAA9B1A139A1993012A13440D935EDD0D9B002201330D93129223EAE373C2E60898314647
:402BC00023AA01F0D5FE00287EF4C8AE3A461D9D2599249B00E6129B002BD8BFC3F10208139BC8BF4FF0010843440D9323EAE373A7E6002B30DDBBF1000F17D1079BDB0777
:402C000014D4129A22EAE2730D929AE6219B7DE6099851460022002302F090FD00287FF413AFC9F101031D9398445CE6129B0BF1010843440D9323EAE37382E63033302223
:402C40008DF87F308DF87E2020ABA7E7129B01330D9323EAE37374E6BBF1000F1DD1079BD8071AD401230D936BE6079B13F001039CD112930D9B23EAE37362E60E9D284612
:402C8000D5F800A00430BAF1000F5D780E90BEF6F2AD4FF0FF3AFEF7EEBD0BF102030D9323EAE3734DE6089A0C2313604FF0FF30FEF75EBE0DF17E0370E700BFD85800001C
:402CC00067666666024B13B1024800F005B8704700000000C13C0000014600200246034601F0C8BE2DE9F04F03690F6983B09F4200F38B80013F01F1140600F1140A56F81C
:402D000027305AF827200133B2FBF3F8BB00009306EB030953440193B8F1000F3DD000231C46B446D6461A465CF804BBDEF800501FFA8BF34FEA1B4B03FB08220BFB08F309
:402D400003EB124392B2A41A1FFA83FBAAB22244CBEB154404EB224492B242EA0442E1454EF8042B4FEA24444FEA1342DCD2009B5AF803308BB9019C231F9A450CD254F8D7
:402D8000043C4BB9A4F1080302E01A68043B1AB99A4507F1FF37F8D30761044601F092FC00282EDB00235546194608F1010856F8042B2B6890B2081A120C99B2C2EB134380
:402DC000421803EB224392B242EA0342B14545F8042B4FEA2341EAD25AF827200AEB87037AB91A1F92450BD253F8042C42B9083B02E01A68043B1AB99A4507F1FF37F8D377
:402E00002761404603B0BDE8F08F002003B0BDE8F08F00BF000000002DE9F04F016C99B00446CDE90223259D41B1426C012393408B604A6001F05AFA00232364DDE90223FF
:402E4000002B994636DB00232B60A54B1A4609EA0303934217D0DDE90267002200233046394602F06BFC804600282BD0249A01231360269B002B00F0CB809A4818600138CA
:402E800019B0BDE8F08F42F20F73249A1360029B002B00F0A6809448269B002BF0D0C378002B00F0B78000F10803269A136019B0BDE8F08F039A012322F000492B60CDF8C3
:402EC0000C90C2E717AA16AB8DE80C00204632463B4601F08DFC5FEA1955834640F08A80DDF85880179D6FF4826345449D42C0F295827E4A05F21243521B09FA02F9029A02
:402F000022FA03F049EA0000FDF7B6FD0123013DA1F1F87112930022754BFDF76FFC6AA3D3E9002302F0A2F969A3D3E90023FDF767FC064628460F46FDF7AEFD66A3D3E937
:402F4000002302F093F902460B4630463946FDF757FC06460F4602F023FC3946059000223046002302F0F4FB002840F0A481059B162B00F29D81DDE9022305985D4901EBF1
:402F8000C001D1E9000102F001FC002800F05082059B013B059300230C93C5EB0805B5F1010A00F19F8100230693059B002BC0F290819A440B9300230993229B092B2BD88E
:402FC000052B40F37786043B22930025229B023B032B00F25586DFE813F0CF03C103B0026A06414B444AC9F31300002814BF1846104651E7C7F3130343F07F51CDF84880B1
:403000003046A5F2FF3541F44011DDF8588082E73A4835E7C31C48E7002161642046229101F03CF94FF0FF33229A07930D9301230890239220640A93179B002BC0F2D0800A
:40304000059A0E2A00F3CC802A4B03EBC203D3E90089239B002BC0F29283DDE9026742464B463046394602F02BFA02F099FB8246FDF712FD42464B4602F0F8F802460B46E4
:4030800030463946FDF7BAFB079E089F0AF13005012E3D7002460B4607F1010562D00022174B02F0E3F80022002306460F4602F045FB002840F08180CDF808B0DDF820A07D
:4030C000DDF81CB006942AE061436F63A787D23FB3C8608B288AC63FFB799F501344D33F0000F07FE1580000005900000EFCFFFF0000F83F20590000F4580000E0580000B0
:40310000000024400022C84B02F0B0F80022002306460F4602F012FB002840F0E08342464B463046394602F0CBF902F039FB0446FDF7B2FC42464B4602F098F802460B46B2
:4031400030463946FDF75AFB04F1300605F8016BCAEB0506B34502460B46D3D1A246DDF808B0069C10461946FDF74AFB06460F464046494632463B4602F0EAFA48B9404677
:40318000494632463B4602F0D9FAB0B11AF0010F13D015F8018C6B1E089904E08B4200F0458413F8018DB8F1390F03F101051A46F4D008F10103DBB213702046594601F08B
:4031C00095F80022059B2A70249A01331360269B002B00F04A8308981D6019B0BDE8F08F0A9A002A00F08480229A012A40F30983079B5F1E099BBB42C0F2AF83DF1B079B26
:40320000002BC0F2A584069D079B069A20461A44012106929A4401F003F9064665B1BAF1000F09DDAA455346A8BF2B46069AED1AD21A0692C3EB0A0A099B002B1ADD0A9BA0
:40324000002B00F08383002F10DD31463A46204601F090F906465A463146204601F0EAF880465946204601F041F8C346099BDA1B40F0A7822046012101F0D2F80B9B8046FF
:40328000002B39DD01461A46204601F073F9229B8046012B40F39B824FF00009D8F8103008EB8303186901F06DF8C0F120002DE001230C9371E60598FDF7EEFB32463B4651
:4032C00002F03CFA00287FF452AE059B013B05934DE6069A059BD21A5B420993002306920B936AE6CAF1000306934FF0000A5CE6099F069D0A9E91E7229B012B40F3B882B3
:403300004FF000090B9B002BC8D10120504410F01F0000F08180C0F12003042B40F3C184C0F11C00069B0544034406938244069B002B05DD59461A46204601F06BF983460D
:40334000BAF1000F05DD41465246204601F062F980460C9B002B40F06D82079B002B40F39B820A9B002B71D1DDF82090079F4D4604E05946204600F0C3FF834658464146B3
:40338000FFF7B0FC303005F8010BC9EB0503BB424FF00A024FF00003EBDB089B079A8446012AACBF9B1801331D464FF0000A594601222046CDF808C001F02CF941468346A4
:4033C00001F080F90028DDF808C040F3FC8215F8012C6B1E089904E08B4200F0798213F8012D392A03F10105F6D001321A704146204600F07BFF002E3FF4DFAEBAF1000FD5
:4034000005D0B24503D05146204600F06FFF3146204600F06BFFD0E61C2083E7034B029A5B1B02FA03F06FE500002440EEFBFFFF0C90B2E53146002320460A2200F060FF63
:403440000D9B0646002B40F315840793002D05DD31462A46204601F0DDF80646B9F1000F40F0EE82B146089A079B1746013BD3180993029B03F001030A9341465846FFF759
:4034800031FC31460546584601F01CF94A4682464146204601F03AF9C268034605F1300C002A40F0BD8119465846CDF81CC0069301F008F9069B02901946204600F016FFAD
:4034C000029ADDF81CC02AB9229B1BB90A9B002B00F0B083BAF1000FC0F2578205D1229B1BB90A9B002B00F05082002A00F3BC82099B07F1010A9F4287F800C0554600F02D
:40350000BF8259460A220023204600F0F9FE4E458346314620464FF00A024FF0000300F0798100F0EDFE494606460A222046002300F0E6FE574681469FE701230A93239BB7
:40354000002B40F319821F461E460D9307930021172F61640AD9012204235B0003F114008742114602F10102F7D26164204600F095FE0E2E089020643FF65EAD002D3FF40E
:403580005BADDDE902230599CDE90E23002940F32682BA4B01F00F020D1103EBC203E906D3E9006740F1E181DDE90E01B44B05F00F05D3E9082301F083FFCDE902014FF0E3
:4035C00003088DB130463946DFF8B492EA0705D5D9E9002301F04AFE08F101086D1009F10809F3D106460F46DDE9020132463B4601F066FFCDE902010C9B43B1DDE9020163
:403600000022A04B02F0A4F8002840F0B5824046FDF742FADDE9022301F028FE9A4B0022FDF7EEF8079B0646A1F15077002B00F06881059BDDF81CC013930A9B002B00F0C5
:4036400026828E4B002003EBCC0353E902238F49CDF850C001F034FF32463B46FDF7CEF8DDE90267CDE910013946304602F098F80546FDF711FA02460B4630463946FDF7CE
:40368000BDF8DDE9102330355FFA85F8089D064685F800800F46013502F05AF8002840F0B98232463B4600207649FDF7A7F802460B46DDE9100102F069F8002840F0B38216
:4036C000DDF850C0BCF1010F40F33A81089BCDF850A0CDF808B003EB0C09DDE910ABA0460FE032463B4600206649FDF787F852465B4602F02DF8002840F090824D4500F095
:403700001A81504659460022614B01F0AFFD00225F4B82468B463046394601F0A7FD0F46064602F03DF80446FDF7B6F902460B4630463946FDF762F83034E4B205F8014B8B
:4037400052465B4606460F4602F002F80028C8D0139BDDF808B0444605932EE500230A93239B059A13440D930133002B079340F30A81079E3746EAE600230A93DFE6079B6F
:40378000002B3FF76AAC40F0668240460022414B494601F06BFDDDE9022301F0EDFFDDF81C804646002800F08B80239B089DDB4305934146204600F099FD002E7FF427AE74
:4037C000FBE45946204600F0D5FE834652E5029B002B7FF461AD039BC3F31303002B7FF48FAD039B23F000473F0D3F05002F00F01E82069B0AF1010A013306934FF0010991
:4038000080E5129A002A00F0A98103F23343099F069DFAE400F074FD5746064681462CE601462046CDF808C000F060FD0122DDF808C04FE65846414600F044FF0028BFF6CB
:403840008CAD059F5946002320460A22013F059700F056FD0A9B8346002B7FF4EBAD0D9B002B40F3FC8107937EE50898FFF708BB029B002B7FF444ADADE700BF2059000083
:40388000E85900000000F03F00001C400000E03F0000244000001440229B022B7FF761AD079B002B81D141460522204600F028FD80465846414600F005FF00287FF775AF0E
:4038C000059A08993123013205920B704D1C70E7059A312301320592089A137087E5DDF808B0069C69E44046FDF7D6F8DDE9022301F0BCFC0022BE4BFCF782FF0646A1F10C
:403900005077DDE902010022BA4BFCF777FF32463B46CDE9020101F039FF8046002840F0B280DDE90201324607F1004301F010FF30B1464639E74446DDF850A0DDF808B057
:40394000DDE90E23CDE90223FFF776BB5946099A204600F00FFE83468CE4099B0B9AFB1A1A4409970B92002749E4DDE90E234FF00208CDE9022324E6012623960D960796DE
:4039800000216164F2E51E46FAE7002A15DD594601222046CDF808C000F03CFE4146834600F090FE0028DDF808C040F34D81BCF1390F00F009810CF1010CB24687F800C0C6
:4039C0007D1C4E4613E504D11CF0010F01D0FEE4154615F8013C6A1E302BF9D007E5059B5D42002D00F0C180DDE90E01824B05F00F0203EBC203D3E9002301F037FC2D1188
:403A0000CDE9020100F030817C4E4FF00208EB0705D5D6E9002301F029FC08F101086D1006F10806F3D1CDE90201E5E5059A302301320592089A137031231370FFF7BDBB64
:403A40007168204600F02AFC0546336906F10C019A1C92000C30FDF7D1FD20462946012200F0D8FD8146FEE4BCF1390F00F0AC800CF1010CB24687F800C07D1C4E46B6E441
:403A8000B2464E4693E44FF00008464618E75A490CF1FF3301EBC3013246D1E9000114933B46CDF854C001F0E1FBDDE90267CDE910013946304601F073FE0546FCF7ECFF38
:403AC00002460B4630463946FCF798FEDDF854C0089A3035BCF1010F157006460F4602F1010523D0089BCDF808A063445E469A46AB460022424B01F0B9FB8946804601F0EA
:403B00004FFE0746FCF7C8FF303702460B4640464946FCF773FE0BF8017BD345E9D1B3460F460646149BDDF808A01D440022354BDDE91001FCF764FE32463B4601F008FE82
:403B4000002848D0139B059315F8018CFFF723BB069B079A9D1A0023FFF757BB169B099FC3F13603069DFFF750BBDDE90E234FF00208CDE902233FE5079B002B3FF4B3AEA3
:403B80000D9D002D7FF7DCAEDDE9020100221C4B01F06CFB06460F4608F10100CDE90267FCF77AFF02460B463046394601F05EFB0F4B0022FCF724FE059B0646013B139327
:403BC000A1F15077AC4638E53922B2463A704E467D1CFFF7FEBBDDE9102300200949FCF70DFE32463B4601F0D1FD70B9A8E600BF00001C400000144020590000E859000083
:403C0000000024400000E03F154615F8013C6A1E302BF9D0139B0593FFF7CFBA4346A0461C46DDF808B0139B0593FFF7B4BAB946FFF768BBBCF1390FC6D0BAF1000F7FF710
:403C4000BCAE05F1310CB8E67FF4B7AE1CF0010F3FF4B3AEABE64FF000084646A5E5229B022B04DC0D9BFEE54FF00208C4E40D9B079315E6229B022BF9DC0D9BFFF7E5BB13
:403C8000002565642946204600F008FB4FF0FF3307930D9301230890239520640A93FFF7CBB93FF444ABC0F13C00FFF73BBB01230A9355E50125FFF789B900BFAFF300805F
:403CC00038B5084B084DED1AAC1018BFED1805D0013C55F8043D9847002CF9D1BDE8384001F0A2BE345A0000385A0000004870474C85FF1F2DE9F04F01F10B05162D83B0D2
:403D0000064627D935F0070500F1B680A94200F2B38000F0BFFAB5F5FC7F22D2BC4FE80807EBC003DC689C4200F0BC816368E16823F0030323445A68A56842F00102E9602D
:403D400030468D605A6000F0A7FA0834204603B0BDE8F08F102900F28F8000F09BFA1025DCE7680A00F08F80042800F24781A80938304100A64F07EB8101CC68A14206D15D
:403D80000CE0002A80F28280E468A14206D0636823F003035A1B0F2AF3DD013801309C493C6901F1080E744500F07181636823F003035A1B0F2A00F35781002AC1F814E047
:403DC000C1F810E066DAB3F5007F80F02D81DB0801EBC3084FEAA30C4A68012303FA0CF3D8F808C01343C4F808C0C4F80C804B60C8F80840CCF80C408210012494409C425B
:403E000055D8234206D120F003006400234200F10400FAD007EBC008C4468146DCF80C309C4507D135E1002980F24581DB689C4500F02F815A6822F00302511B0F29F2DDA3
:403E40001C46DA6854F808CF45F0010941F001081D44C3F804903046CCF80C20C2F808C07D613D61C5F80CE0C5F808E0C5F80480695000F011FA69E7002420460C2333600F
:403E800003B0BDE8F08F7E213F2073E723445A68E16851E723445A68304642F001025A60083400F0F9F9204603B0BDE8F08FBC68636823F00308454504D8C5EB08030F2BD8
:403EC00000F38C80534BDFF85CA11A68DAF800302A44013304EB080B00F0518102F580520F3222F47F6222F00F0211463046019200F0FEFCB0F1FF3F8146019A00F04881FF
:403F0000834500F2EF80444BCB4519681144196000F04381DAF80000DFF808E101301BBFCBEB090B5944CEF80090196019F0070100F00881C1F10800C1F58051814408311A
:403F40004A44C2F30B02C2EB010A51463046019300F0CEFC431C019B00F02D81C9EB0002524442F001021968BC425144C7F808901960C9F80420DFF8A0A016D0B8F10F0F37
:403F800040F2EF806268A8F10C0323F0070302F00102E0184FF0050E1A430F2B6260C0F804E0C0F808E000F20A811C4BBC681A68914288BF19601A4B1A689142626888BF15
:403FC000196022F003029542A2EB050301D80F2B04DC304600F060F90024B7E645F0010243F00103254462603046BD6008346B6000F052F9204603B0BDE8F08F142869D928
:40400000542800F29880280B6E304100B2E600BF8485FF1FC089FF1FC489FF1FBC89FF1FB889FF1F9089FF1F5A0A042A55D9142A00F2A7805B324FEA420C07EB8C0CDCF816
:404040000810DFF8B88161457FD04A6822F00302934202D289688C45F7D1CA687B68E260A1609460CC60C7E645F0010742F001032544676030464D610D61C5F80CE0C5F867
:4040800008E06B60AA50083400F006F95EE64B68B2E609F1010919F0030F0CF1080C7FF4BDAE2CE004F108036469A34208BF02303FF475AE3AE61C461A445168DB6854F856
:4040C000085F41F0010151603046EB609D6000F0E3F83BE65B3041004CE69A0938324FEA420CAAE7BC42454B3FF40DAF9C68626822F0030267E7D8F8008098457CD110F07E
:40410000030FA8F1080300F1FF30F4D17B6823EA04037B6064009C423FF6C9AE002C3FF4C6AE234248467FF475AE6400234200F10400FAD06EE6B0F5AA7F18D8E80B773094
:40414000410017E64FF48051FAE6D8F8043092104FF0010C0CFA02F21343C8F804300A467DE70123C9F804304C4600222BE740F2545398421CD8A80C7C304100FAE51032DB
:40418000B3E6542A23D81A0B6E324FEA420C54E7BC68626822F0030215E7CBF30B0000287FF4B8AE4244BB6842F001025A60FCE6FC217E20DEE501224FF0000AD3E604F189
:4041C0000801304600F026FDDAF80010EDE6B2F5AA7F04D8DA0B77324FEA420C2DE740F254518A4204D89A0C7C324FEA420C24E74FF0FC0C7E2220E77B688BE78485FF1FD4
:40420000830770B4C9B240D0541E002A3FD003788B4218BF431C05D11CE0ECB10278013C8A4217D013F0030F184603F10103F4D1032C14D884B103788B420BD00519431C23
:4042400002E002788A4205D0AB42184603F10103F7D1002070BC7047204670BC7047024641EA012646EA0646136810467340A3F1013525EA030313F0803F02F10402D9D10C
:40428000043C032C1046EFD8D4E71446D0E71046E0E700BF704700BF704700BFC26C70B505460C4652B152F824308BB1196842F82410002218461A61DA6070BD2122042158
:4042C00000F02AFCE86402460028ECD1002070BD012101FA04F6721D2846920000F01CFC03460028F2D044608660E2E731B1C36C4A6853F82200086043F82210704700BF33
:40430000F0B50C4605460E6983B001F1140E0027DEF80010013788B2090C02FB003302FB01F198B201EB134300EB0341BE424EF8041B4FEA1343EBDC3BB1A268964207DAA5
:4043400004EB8602013653612661204603B0F0BD6168284601310193FFF7A0FF0746226904F10C01023292000C30FDF747F9EA6C6168019B52F82100206042F821403C4629
:40438000DEE700BF030C1B04B3B90004102310F07F4F04BF0002083310F0704F04BF0001043310F0404F04BF80000233002807DB420003D4202070470023E8E7581C7047E2
:4043C00018467047036813F0070207D0D90720D49A0720D49B0803600220704799B209B91B0C102213F0FF0F04BF1B0A0832190704BF1B090432990704BF9B080232D90722
:4044000004D45B0801D1202070470132036010467047002070475B0803600120704700BF10B50C460121FFF739FF01224461026110BD00BF2DE9F04F0E69156985B0AE4214
:404440000C469146C0F292802B4635461E46A36805EB060861689845C8BF0131FFF71EFF00F1140A0AEB880BDA45019005D25346002143F8041B9B45FBD809F1140909EB94
:40448000860304F11402994502EB850C59D2CDF808B0CDF80C809B46904659F8047B1FFA87FEBEF1000F1FD047465646002100E00646304657F8045B3468ABB2A2B20EFB51
:4044C00003222D0C240C0EFB0544531804EB13419AB242EA0142BC454FEA114140F8042BE6D8716059F8047C3F0C22D0DAF80030002255461E464046964600E025462C46A1
:404500000288360C07FB026699B206EB0E0241EA024344F8043B50F8041B6E68090CB3B207FB0131844501EB12434FEA134EE5D86B60CB450AF1040AAFD8DDF808B0DDF8F5
:404540000C80B8F1000F0BDD5BF8043CABF1040B1BB105E05BF8043D13B9B8F10108F9D10198C0F8108005B0BDE8F08F144689466DE700BF12F003032DE9F0411446074658
:404580000E462DD1A4101CD0BD6C95B3E3074FF0000806D4641014D02868A8B10546E307F8D5384631462A46FFF744FFB6B17268FB6C641053F82210316043F82260064679
:4045C000EAD13046BDE8F08129462A463846FFF731FF2860C0F800800546E0E70646D9E70B4A013B52F823200023FFF789FE0646C8E701213846FFF751FE40F2712101228E
:404600000023416102610546B8640360BEE700BF105900002DE9F0470F694FEA62198B684F447D1C9D420E4614468046496804DD5B009D4201F10101FADC4046FFF72EFE92
:40464000B9F1000F00F1140109DD00239E460A4601334B4542F804EBFAD101EB8301326906F1140303EB820E14F01F0222D0C2F120094FF0000A1C688C4694404AEA04044D
:4046800041F8044B53F8044B9E4524FA09FAF2D8CCF804A0BAF1000F00D0BD1CD8F84C307268013D53F822100561316043F82260BDE8F087043953F8042B9E4541F8042F88
:4046C000F9D8EBE702690B69D21A13D19B0014301431194410B4034401E098420CD253F8044D51F8042D9442F7D009D301205DF8044B70471046704700205DF8044B7047B0
:404700004FF0FF305DF8044B704700BF2DE9F0470C460546114620469146FFF7D3FF061E5DD056DB4FF0000A28466168FFF7B6FD09F1140380461E462769D9F8102004F13F
:40474000140E7546C0F80CA000F114040EEB870E03EB820C4FF0000A55F8042B56F8041B90B200EB0A0388B2090C1B1AC1EB124202EB23429BB243EA0243B44544F8043B70
:404780004FEA224AA946E7D8AE45264615D959F8040B83B25344000C00EB23419BB243EA0143CE4544F8043B4FEA214AEFD8ED43754425F0030404343444043C23B954F8FE
:4047C000043D013F002BFAD04046C8F81070BDE8F08723464FF0010A4C469946A4E728463146FFF75BFD012346610361BDE8F087F0B5012183B01C46C3F30A551646FFF771
:404800004DFDC4F3130407460DB144F48014019406B302A840F8086DFFF7D4FD002830D19DE80C007A61002B14BF02240124BB613C61D5B9089A07EB8403A0F23240106069
:404840001869FFF79FFD099BC0EB44101860384603B0F0BD01A8FFF7B5FD019B0122144620303A617B61002DE4D0A5F23343089A03441360099BC0F135001860384603B07E
:40488000F0BD019BC0F12001009A03FA01F10A43C34001937A61C6E710B431F0004408D0114BA1F580129A4208D804205DF8044B704718B902205DF8044B704701F1FF41A8
:4048C000094B01F5E0019942EFD9B4F5801F01D20320EBE7054B9C4201D00020E6E7B0FA80F04009E2E700BFFFFFDF7F0000F07F38B5074C0023054608462360FBF7E8FBE4
:40490000431C00D038BD2368002BFBD02B6038BDF889FF1F20F0030110F00300C0F1000051F8043B00F1040C4FEACC0C6FF000021CBF22FA0CF213434FF0010C4CEA0C2CEB
:404940004CEA0C4CA3EB0C0222EA030212EACC1204BF51F8043B0430F4D0C2F1000102EA0102B2FA82F2C2F11F0200EBD20070472DE9F04F936883B09146D2F80080002B05
:4049800072D04FF0000B0D465C4607468B680868002C45D09C421E469A4648D3AB8913F4906F2DD06E69296906EB4606C1EB000A06EBD676601C76105044864232463CBFA7
:4049C000064632465B0535D511463846FFF792F9002839D0524629690190FCF70FFEAA89019B22F4906242F08002AA81CAEB060203EB0A006E61A24626462B612860AA609B
:404A00005246594600F0DEF9D9F80820AB6828689B1B5044141BAB602860C9F808401CB3D8F800B0D8F8044008F10808B0E72646A246E5E7384600F029FA03460028D5D1FC
:404A40003846296900F0E6F80C233B60AB89002243F040034FF0FF30AB81C9F80820C9F8042003B0BDE8F08F0020C9F8040003B0BDE8F08F2DE9F047254C06462568884662
:404A8000D5F8484192469946C4B360681F2817DC411C76B104EB8003C3F888A0D4F88851012282401543022EC4F88851C3F808911ED0831C6160002044F82380BDE8F08733
:404AC000144B03B34FF4C870AFF300800446D0B1D5F84831002784E888003846C5F848410121C4F88871C4F88C71002EE1D0D1E7D4F88C311A43C4F88C21DAE705F5A674C9
:404B0000C5F84841C1E74FF0FF30BDE8F08700BF8C5800000000000010B502FB01F1FFF7E9F8044668B150F8042C22F00302043A242A18D8132A06D8034600221A605A60A7
:404B40009A60204610BD00231B2A036043600FD9242A8360C36005BF0361436100F1100300F11803E9E70021FCF7BEFD204610BD00F10803E1E700BFF8B50C46224F064671
:404B8000FFF788FBBB685D6825F00305291B01F6EF7121F47F6121F00F01A1F58054B4F5805F07DB30460021FFF7A2FEBB682B44984204D03046FFF76FFB0020F8BD304664
:404BC0006142FFF795FE01300DD0104BBA6819682D1B45F001053046091B55601960FFF75BFB0120F8BD30460021FFF781FEBA68831A0F2BDEDD064C0449246843F00103EE
:404C0000001B53600860D5E78485FF1FC489FF1F9089FF1F00294ED02DE9F0410C468046FFF738FB54F8047C6249A4F1080527F00102AB188E6858689E4220F003005AD021
:404C4000FE0758600BD454F8087C01F1080EED1BAC683A44744567D0EF68E760BC601C186468E4070CD4544F9C680244BC427CD0D86842F00103E06084606B60AA5003E038
:404C800042F001036B60AA50B2F5007F14D2D20801EBC20301244868921004FA02F29C681043AC60EB6048609D60E5604046BDE8F041FFF7F1BA7047530A042B47D8930966
:404CC00003F13804600001EB800083683949834243D0596821F00301914202D99B689842F7D1DA68EA60AB6040469560DD60BDE8F041FFF7D1BAFF07024407D454F8084CDD
:404D00002D1BEB68A8682244C36098602B4B42F001001B6868609A428D60C7D3284B40461968FFF729FFC1E719184968C90709D4D96802449B6842F00100D9608B60686078
:404D4000AA50B3E742F001036B60AA50AEE7142B14D803F15B046000B5E74A68A4100120A04002434A601A46BCE742F001034D610D61EC60AC606B60AA5097E7542B04D8F4
:404D8000130B03F16E0460009DE7B3F5AA7F04D8D30B03F17704600095E740F25450834204D8930C03F17C0460008CE7FC207E2489E700BF8485FF1F8C85FF1F8C89FF1FE2
:404DC000C089FF1F8842F0B50DD98B1898420AD28118002A54D09A1A13F8014D934201F8014DF9D1F0BD0F2A48D940EA01039B0747D1154600F1100401F1100353F8106CA9
:404E0000103D44F8106C53F80C6C0F2D44F80C6C53F8086C04F1100444F8186C53F8046C03F1100344F8146CE8D8A2F1100323F00F0302F00F0E1033BEF1030F1944034472
:404E400021D90E4674461D1F56F8047B043C032C45F8047FF8D8AEF1040424F0030404342344214402F0030252B1013B0A4411F8014B914203F8014FF9D1F0BD0346F3E7CB
:404E8000F0BD0346F1E77246EEE700BF2DE9F04F174683B00D46002900F0E280814607F10B04FFF7F7F955F8043C162C23F00306A5F108084BD810221446A7424CD896424C
:404EC00051DADFF8A4B308EB0601DBF80800884200F0D380486820F0010E8E44DEF804E01EF0010F54D120F003003044904280F2BD80DB0700F1908055F8083CC3EB080A9D
:404F0000DAF8043023F0030300EB030E964549DB5746CB688968321FCB60996057F8081FDAF80C30242ACB60996000F23381132A40F2FA802B681B2ACAF808306B68CAF835
:404F40000C3000F23B8108350AF11003EDE024F00704002C2246B0DA0C230020C9F8003003B0BDE8F08F2F46321B0F2A03F0010340D83343C8F804304644736843F00103CB
:404F800073604846FFF788F9384603B0BDE8F08FD90741D455F8083CC3EB080ADAF8043023F003033344934236DB5746DAF80C1057F8080F321F242AC160886000F2F58002
:404FC000132A40F2F08029681B2ACAF808106968CAF80C1000F2078108350AF1100229681E4611606968D0465160AB689360DAF80430B9E708EB0401234342F00100C8F8B4
:4050000004300A4448605368083143F0010353604846FFF7FFFDB4E739464846FEF76AFE07460028ADD055F8043CA0F1080123F001024244914200F0A680321F242A00F2B4
:405040009380132A65D803462A46116819605168596092689A6029464846FFF7DBFD90E7114603B0BDE8F04FFEF744BECA6889682F46CA600646916076E7416804F1100061
:4050800021F00301314481425ADADB07C4D455F8083CC3EB080ADAF8043023F0030301EB030C60453FF77EAF5746DAF80C3057F8081F321F242ACB60996000F2B680132A39
:4050C00040F2A7802B681B2ACAF808306B68CAF80C3000F2B38008350AF110032A681A606A685A60AA689A60C4EB0C030AEB040243F00103CBF808205360DAF8043048467E
:4051000003F001031C43CAF80440FFF7C5F838463BE72B681B2A03606B68436028D800F1080305F1080290E73B462A6876461A606A68D0465A60AA689A60DAF8043013E7A5
:405140000B1B08EB040243F00103CBF80820536055F8043C484603F001031C4345F8044CFFF79AF8284610E72946FFF72BFE72E7AB68242A8360EB68C3602BD000F11003B0
:4051800005F1100261E750F8042C2F4622F003021644E9E6294638467646D046FFF712FEDAF80430E0E63A4619E7294638461E46D046FFF707FEDAF80430D5E6AB68242ADD
:4051C000CAF81030EB68CAF8143018D010350AF11803AAE72A6900F118030261696905F11802416131E7A968242ACAF81010E968CAF814100FD010350AF11802EFE62A69C9
:405200000AF12003CAF818206A691835CAF81C208BE73B4662E729690AF12002CAF8181069691835CAF81C10D9E629463846CDF804C0FFF7C7FDDDF804C055E7AB68242A31
:40524000CAF81030EB68CAF8143003D010350AF1180343E72A690AF12003CAF818206A691835CAF81C2039E78485FF1F70B54FF0FF0C4CF4E06C1CEA11541DBF1CEA1355BB
:4052800094EA0C0F95EA0C0F00F0DEF82C4481EA030621EA4C5123EA4C5350EA013518BF52EA033541F4801143F4801338D0A0FB02CE4FF00005E1FB02E506F00042E0FBE5
:4052C00003E54FF00006E1FB03569CF0000F18BF4EF0010EA4F1FF04B6F5007F64F5407404D25FEA4E0E6D4146EB060642EAC62141EA55514FEAC52040EA5E504FEACE2E49
:40530000B4F1FD0C88BFBCF5E06F1ED8BEF1004F08BF5FEA500E50F1000041EB045170BD06F0004646EA010140EA020081EA0301B4EB5C04C2BFD4EB0C0541EA045170BD21
:4053400041F480114FF0000E013C00F3AB8014F1360FDEBF002001F0004170BDC4F10004203C35DA0C341BDC04F11404C4F1200500FA05F320FA04F001FA05F240EA0200F9
:4053800001F0004221F0004110EBD37021FA04F642EB06015EEA430E08BF20EAD37070BDC4F10C04C4F1200500FA04F320FA05F001FA04F240EA020001F0004110EBD370DB
:4053C00041F100015EEA430E08BF20EAD37070BDC4F1200500FA05F24EEA020E20FA04F301FA05F243EA020321FA04F001F0004121FA04F220EA020000EBD3705EEA430E33
:4054000008BF20EAD37070BD94F0000F0FD101F00046400041EB010111F4801F08BF013CF7D041EA060195F0000F18BF704703F00046520043EB030313F4801F08BF013DE6
:40544000F7D043EA0603704794EA0C0F0CEA135518BF95EA0C0F0CD050EA410618BF52EA4306D1D181EA030101F000414FF0000070BD50EA410606BF1046194652EA430628
:4054800019D094EA0C0F02D150EA013613D195EA0C0F05D152EA03361CBF104619460AD181EA030101F0004141F0FE4141F470014FF0000070BD41F0FE4141F4780170BD84
:4054C00070B54FF0FF0C4CF4E06C1CEA11541DBF1CEA135594EA0C0F95EA0C0F00F0A7F8A4EB050481EA030E52EA03354FEA013100F088804FEA03334FF0805545EA131377
:4055000043EA12634FEA022245EA111545EA10654FEA00260EF000419D4208BF964244F1FD0404F5407402D25B084FEA3202B61A65EB03055B084FEA32024FF480104FF4C2
:40554000002CB6EB020E75EB030E22BFB61A754640EA0C005B084FEA3202B6EB020E75EB030E22BFB61A754640EA5C005B084FEA3202B6EB020E75EB030E22BFB61A7546F9
:4055800040EA9C005B084FEA3202B6EB020E75EB030E22BFB61A754640EADC0055EA060E18D04FEA051545EA16754FEA06164FEAC30343EA52734FEAC2025FEA1C1CC0D124
:4055C00011F4801F0BD141EA00014FF000004FF0004CB6E711F4801F04BF01430020B4F1FD0C88BFBCF5E06F3FF6AFAEB5EB030C04BFB6EB020C5FEA500C50F1000041EB13
:40560000045170BD0EF0004E4EEA113114EB5C04C2BFD4EB0C0541EA045170BD41F480114FF0000E013C90E645EA060E8DE60CEA135594EA0C0F08BF95EA0C0F3FF43BAFD4
:4056400094EA0C0F0AD150EA01347FF434AF95EA0C0F7FF425AF104619462CE795EA0C0F06D152EA03353FF4FDAE1046194622E750EA410618BF52EA43067FF4C5AE50EACA
:4056800041047FF40DAF52EA43057FF4EBAE12E74FF0FF3C06E000BF4FF0010C02E000BF4FF0010C4DF804CD4FEA410C7FEA6C5C4FEA430C18BF7FEA6C5C1BD001B050EA62
:4056C000410C0CBF52EA430C91EA030F02BF90EA020F0020704710F1000F91EA030F58BF994208BF90422CBFD8176FEAE37040F0010070474FEA410C7FEA6C5C02D150EAFD
:40570000013C07D14FEA430C7FEA6C5CD6D152EA033CD3D05DF8040B704700BF8446104662468C461946634600E000BF01B5FFF7B7FF002848BF10F1000F01BD4DF808ED22
:40574000FFF7F4FF0CBF012000205DF808FB00BF4DF808EDFFF7EAFF34BF012000205DF808FB00BF4DF808EDFFF7E0FF94BF012000205DF808FB00BF4DF808EDFFF7CEFF02
:4057800094BF012000205DF808FB00BF4DF808EDFFF7C4FF34BF012000205DF808FB00BF4FEA410212F5001215D211D56FF47873B3EB625212D94FEAC12343F0004343EA53
:4057C000505311F0004F23FA02F018BF404270474FF00000704750EA013005D111F0004008BF6FF0004070474FF00000704700BF53B94AB9002908BF00281CBF4FF0FF31DC
:405800004FF0FF30FBF73CBC82B0EC462DE90050FBF71EFCDDF804E002B00CBC704700BF0000000060B8FF7F010000000000000025362E33660000000D0A00001051004020
:405840001000305100404000F05100401000000001400010001401400006801A0140800100400140000A004C01400002005001402000000060520040A40200480600001AB3
:405880000140AC0200488000430000002081FF1F30303030303030303030303030303030494E4600696E66004E414E006E616E003031323334353637383941424344454659
:4058C000000000003031323334353637383961626364656600000000286E756C6C2900003000000020202020202020202020202020202020496E66696E69747900000000C0
:405900004E614E00504F5349580000002E00000005000000190000007D00000000000000000000000000F03F000000000000244000000000000059400000000000408F40D3
:40594000000000000088C34000000000006AF8400000000080842E4100000000D01263410000000084D797410000000065CDCD41000000205FA00242000000E8764837420C
:40598000000000A2941A6D42000040E59C30A2420000901EC4BCD64200003426F56B0C430080E03779C3414300A0D8855734764300C84E676DC1AB43003D9160E458E14305
:4059C000408CB5781DAF154450EFE2D6E41A4B4492D54D06CFF08044F64AE1C7022DB544B49DD9794378EA440080E03779C34143176E05B5B5B89346F5F93FE9034F384D63
:405A0000321D30F94877825A3CBF737FDD4F1575F8B500BFF8BC08BC9E467047C52C00004D0000004D010000F8B500BFF8BC08BC9E46704729000000485A00000881FF1FB4
:405A4000900800006800000000000000008AFF1F0000E02EC05D00001800000000366E01000000000C84FF1F7484FF1FDC84FF1F0000000000000000000000000000000054
:405A80000000000000000000000000000000000000000000885800000000000000000000000000000000000000000000000000000000000000000000000000000000000006
:405AC00000000000000000000000000000000000000000000000000000000000000000000000000000000000000000000000000000000000000000000000000000000000A6
:405B0000000000000000000001000000000000000E33CDAB34126DE6ECDE05000B000000000000000000000000000000000000000000000000000000000000000000000038
:405B40000000000000000000000000000000000000000000000000000000000000000000000000000000000000000000000000000000000000000000000000000000000025
:405B800000000000000000000000000000000000000000000000000000000000000000000000000000000000000000000000000000000000000000000000000000000000E5
:405BC00000000000000000000000000000000000000000000000000000000000000000000000000000000000000000000000000000000000000000000000000000000000A5
:405C00000000000000000000000000000000000000000000000000000000000000000000000000000000000000000000000000000000000000000000000000000000000064
:405C40000000000000000000000000000000000000000000000000000000000000000000000000000000000000000000000000000000000000000000000000000000000024
:405C800000000000000000000000000000000000000000000000000000000000000000000000000000000000000000000000000000000000000000000000000000000000E4
:405CC00000000000000000000000000000000000000000000000000000000000000000000000000000000000000000000000000000000000000000000000000000000000A4
:405D00000000000000000000000000000000000000000000000000000000000000000000000000000000000000000000000000000000000000000000000000000000000063
:405D40000000000000000000000000000000000000000000000000000000000000000000000000000000000000000000000000000000000000000000000000000000000023
:405D800000000000000000000000000000000000000000000000000000000000000000000000000000000000000000000000000000000000000000000000000000000000E3
:405DC00000000000000000000000000000000000000000000000000000000000000000000000000000000000000000000000000000000000000000000000000000000000A3
:405E00000000000000000000000000000000000000000000000000000000000000000000000000000000000000000000000000000000000000000000000000000000000062
:405E40000000000000000000000000000000000000000000000000000000000000000000000000000000000000000000000000000000000000000000000000000000000022
:405E800000000000000000002081FF1F0C590000C0580000C0580000C0580000C0580000C0580000C0580000C0580000C0580000C0580000FFFFFFFFFFFFFFFFFFFFFFFFF2
:405EC000FFFF000000000000000000008485FF1F8485FF1F8C85FF1F8C85FF1F9485FF1F9485FF1F9C85FF1F9C85FF1FA485FF1FA485FF1FAC85FF1FAC85FF1FB485FF1F89
:405F0000B485FF1FBC85FF1FBC85FF1FC485FF1FC485FF1FCC85FF1FCC85FF1FD485FF1FD485FF1FDC85FF1FDC85FF1FE485FF1FE485FF1FEC85FF1FEC85FF1FF485FF1FF1
:405F4000F485FF1FFC85FF1FFC85FF1F0486FF1F0486FF1F0C86FF1F0C86FF1F1486FF1F1486FF1F1C86FF1F1C86FF1F2486FF1F2486FF1F2C86FF1F2C86FF1F3486FF1FA4
:405F80003486FF1F3C86FF1F3C86FF1F4486FF1F4486FF1F4C86FF1F4C86FF1F5486FF1F5486FF1F5C86FF1F5C86FF1F6486FF1F6486FF1F6C86FF1F6C86FF1F7486FF1F61
:405FC0007486FF1F7C86FF1F7C86FF1F8486FF1F8486FF1F8C86FF1F8C86FF1F9486FF1F9486FF1F9C86FF1F9C86FF1FA486FF1FA486FF1FAC86FF1FAC86FF1FB486FF1F21
:40600000B486FF1FBC86FF1FBC86FF1FC486FF1FC486FF1FCC86FF1FCC86FF1FD486FF1FD486FF1FDC86FF1FDC86FF1FE486FF1FE486FF1FEC86FF1FEC86FF1FF486FF1FE0
:40604000F486FF1FFC86FF1FFC86FF1F0487FF1F0487FF1F0C87FF1F0C87FF1F1487FF1F1487FF1F1C87FF1F1C87FF1F2487FF1F2487FF1F2C87FF1F2C87FF1F3487FF1F93
:406080003487FF1F3C87FF1F3C87FF1F4487FF1F4487FF1F4C87FF1F4C87FF1F5487FF1F5487FF1F5C87FF1F5C87FF1F6487FF1F6487FF1F6C87FF1F6C87FF1F7487FF1F50
:4060C0007487FF1F7C87FF1F7C87FF1F8487FF1F8487FF1F8C87FF1F8C87FF1F9487FF1F9487FF1F9C87FF1F9C87FF1FA487FF1FA487FF1FAC87FF1FAC87FF1FB487FF1F10
:40610000B487FF1FBC87FF1FBC87FF1FC487FF1FC487FF1FCC87FF1FCC87FF1FD487FF1FD487FF1FDC87FF1FDC87FF1FE487FF1FE487FF1FEC87FF1FEC87FF1FF487FF1FCF
:40614000F487FF1FFC87FF1FFC87FF1F0488FF1F0488FF1F0C88FF1F0C88FF1F1488FF1F1488FF1F1C88FF1F1C88FF1F2488FF1F2488FF1F2C88FF1F2C88FF1F3488FF1F82
:406180003488FF1F3C88FF1F3C88FF1F4488FF1F4488FF1F4C88FF1F4C88FF1F5488FF1F5488FF1F5C88FF1F5C88FF1F6488FF1F6488FF1F6C88FF1F6C88FF1F7488FF1F3F
:4061C0007488FF1F7C88FF1F7C88FF1F8488FF1F8488FF1F8C88FF1F8C88FF1F9488FF1F9488FF1F9C88FF1F9C88FF1FA488FF1FA488FF1FAC88FF1FAC88FF1FB488FF1FFF
:40620000B488FF1FBC88FF1FBC88FF1FC488FF1FC488FF1FCC88FF1FCC88FF1FD488FF1FD488FF1FDC88FF1FDC88FF1FE488FF1FE488FF1FEC88FF1FEC88FF1FF488FF1FBE
:40624000F488FF1FFC88FF1FFC88FF1F0489FF1F0489FF1F0C89FF1F0C89FF1F1489FF1F1489FF1F1C89FF1F1C89FF1F2489FF1F2489FF1F2C89FF1F2C89FF1F3489FF1F71
:406280003489FF1F3C89FF1F3C89FF1F4489FF1F4489FF1F4C89FF1F4C89FF1F5489FF1F5489FF1F5C89FF1F5C89FF1F6489FF1F6489FF1F6C89FF1F6C89FF1F7489FF1F2E
:4062C0007489FF1F7C89FF1F7C89FF1F00000200FFFFFFFF00000000000000000000000000000000000000000000000000000000000000000000000000000000000000003F
:40630000000000000000000000000000000000000000000000000000000000000000000000000000000000000000000000000000000000000000000000000000000000005D
:40634000000000000000000000000000000000000000000000000000000000000000000000000000000000000000000000000000000000000000000000000000000000001D
:4063800000000000000000000000000000000000000000000000000000000000000000000000000000000000000000000000000000000000000000000000000000000000DD
:4063C000000000000000000000000000000000000000000000000000000000000000000000000000000000000000000000000000000000000000000000000000000000009D
:020000040003F7
:0200000480007A
:40000000015B004003650040021501406E18014039190140171A01404C1B0140024001400141014001420140014301400348014003490140044C01400D4D014002500140C9
:40004000015101402F84880F8A728B38E810EE080220060308DC0A220C100D030EAC0F4413551409158016D01814192A1B441D731F0C2410257326402704280C2A712B089A
:400080003140321F338034E03530370F39203A203B803F1540454102450B460C470E481549FF4AFF4BFF4EF04F44500C5401580459045A045B045C115D115F0166C06A4050
:4000C0006B02808082408501860887068A0C8C118D048E068F019102930994119517960E980C99179A139D10A020A203A4C0A8C0AC40AE80B0C0B110B230B307B40FB508DE
:40010000B808BA20C002C640C9FFCA07CBFFCC40CD20CEF0CF05D008D804D904DA04DC11DD01DF01E040E1A8E240E320010202100309051507010A040B200E100F08109630
:400140001618184019121A141B081D041F1020202104221023402424268027812E082F1830163240331435153682384039083F80400446084701488049014E024F085210B2
:400180005508564057405C015E085F90C0FFC266C46FCA60CCFFCE1AD0A4D210D6F08204860188018C01920294089A04AA02AE01B001B202B408B604B802BB80BE54D418D6
:4001C000D804D904DB04DC11DD10DF0100660180020404020514070109420A100D080E400F041082132815201780180519151A101D401E481F0420082102238525C02701CA
:4002000029902A063186321038283A013B404005430148054B405001511059015F01654067086A806B1470947202732888028E0190409220934096809F14A010A108A40233
:40024000A604A801A908AE40AF10B410C0FFC27DC4CFCA0FCC0FCE0FD00DD20CD681D830E810EE083320CC10A720A720A7202408A720C820AF20B404EE101F803402C6015F
:40028000CC011080750188808C809901AF80B402B501C408DE04E603E808EC0210021C020003000080800000400000000044230033180C0003084000020080E31C3C23C28F
:4002C0001F1C20E1000000043FFF00000810000004C000000CE7001801808000101F2C000F38C0C00000280200004100250406000100E0C028FFFFFF62A0F0410C000000D7
:40030000000002130404040411110001000000000000400200103010001010120000000000000000000000000000000000000000000004008000408080008000000000006D
:400340000000000000000800000000000000000000000000000000000000000000000000000000000000000000000000000000000000000000000000000000000000000075
:40038000000000000000000000000000000000000000000000000000000000000000000000000000000000000000000000000000000000000000000000000000000000003D
:4003C00000000000000000000000000000000000000000000000000000000000000000000000000000000000000000000000000000000000000000000000000000000000FD
:4004000000000000000000000000000000000000000000000000000000000000000000000000000000000000000000000000000000000000000000000000000000000000BC
:40044000000000000000000000000000000000000000000000000000000000000000000000000000000000000000000000000000000000000000000000000000000000007C
:0200000490006A
:0400000000004005B7
:0200000490105A
:04000000BC90ACAF55
:0200000490303A
:0200000000CC32
:0200000490402A
:4000000000000000000000000000000000000000000000000000000000000000000000000000000000000000000000000000000000000000000000000000000000000000C0
:400040000000000000000000000000000000000000000000000000000000000000000000000000000000000000000000000000000000000000000000000000000000000080
:400080000000000000000000000000000000000000000000000000000000000000000000000000000000000000000000000000000000000000000000000000000000000040
:4000C0000000000000000000000000000000000000000000000000000000000000000000000000000000000000000000000000000000000000000000000000000000000000
:0200000490501A
:0C00000000012E16106900012E3E113583
:00000001FF